:020000040800F2
:10000000F85300209D0100086B1F0008751E0008B2
:10001000691F000849160008B52600080000000006
:10002000000000000000000000000000F9230008AC
:10003000DD1800080000000011200008E12400087D
:10004000B7010008B7010008B7010008B7010008B0
:10005000B7010008B7010008B7010008B7010008A0
:10006000B701000899190008B7010008B701000896
:10007000B7010008B7010008B7010008B701000880
:100080004B160008B7010008B7010008B7010008C7
:10009000B7010008B7010008B7010008B701000860
:1000A000B7010008B7010008B7010008B701000850
:1000B000B7010008B7010008B7010008B701000840
:1000C000B7010008B7010008B7010008B701000830
:1000D000B7010008B7010008B7010008B701000820
:1000E000B7010008B7010008B7010008B701000810
:1000F000B7010008B7010008B7010008B701000800
:10010000B70100082D210008B7010008B701000859
:10011000B7010008B7010008B7010008B7010008DF
:10012000B7010008B7010008B70100084F16000822
:10013000B7010008B7010008B7010008B7010008BF
:10014000B7010008B7010008B7010008B7010008AF
:10015000B7010008B7010008B7010008B70100089F
:10016000B7010008B7010008B7010008B70100088F
:10017000B7010008B7010008B7010008B70100087F
:10018000B7010008B7010008DFF80CD000F060FCF0
:100190000048004725310008F853002006488047F2
:1001A00006480047FEE7FEE7FEE7FEE7FEE7FEE75C
:1001B000FEE7FEE7FEE7FEE74525000889010008A7
:1001C0002DE9F05F0546002092469B46884606468C
:1001D000814640241BE0284641464746224600F01F
:1001E000CCFA53465A46C01A914110D311461846CC
:1001F000224600F0B3FA2D1A67EB01084F4622465B
:100200000120002100F0AAFA17EB00094E41201E40
:10021000A4F10104DFDC484631462A464346BDE8E6
:10022000F09F0000004870476C4E000810B504466F
:10023000FFF7F8FF0068005D00F0010010BD40EA24
:1002400001039B0703D009E008C9121F08C0042A54
:10025000FAD203E011F8013B00F8013B521EF9D23B
:100260007047D2B201E000F8012B491EFBD2704763
:100270000022F6E710B513460A4604461946FFF772
:10028000F0FF204610BD421C10F8011B0029FBD1D5
:10029000801A7047CBB203E00178994203D0401C2A
:1002A000521EF9D20020704730B5044600200346A4
:1002B00000E05B1C934203D2E05CCD5C401BF8D0B5
:1002C00030BD2DE9F04791460F4680460446002692
:1002D00014F8015B2DB1FFF7A5FF0068405DC00772
:1002E000F6D12B2D02D02D2D18D0641E4A4639464A
:1002F000204600F064FA27B13968A14201D1C7F85D
:10030000008071054FF002040BD54042002803DD48
:1003100002F0F4F90460A007BDE8F08746F48066B7
:10032000E4E70028F8DA02F0E9F904606FF0004031
:10033000F2E72DE9FE4F804681EA0300C00F0C462C
:10034000009021F0004123F00045B8EB0200A941E4
:1003500005D24046214690461C460B46024623F0F5
:100360000040104347D0270DC7F30A00C3F30A51DA
:100370000290401A019040286BDAC3F3130040F456
:10038000801B0098924620B10023D2EB030A63EB56
:100390000B0B01985946C0F14002504600F0DEF9BF
:1003A00006460D4650465946019A00F0F6F910EB04
:1003B00008006141002487EA115284EAE7731A4376
:1003C00040D0009A62B3019A012A4FEA075215DC25
:1003D000001B61EB02014FF0004202EA0752CDE937
:1003E0000042001C41F5801132462B4600F0CAFA4B
:1003F00003B0BDE8F08F40462146F9E7001B61EBF2
:100400000201001C41F5801300185B412018A2F581
:10041000001747EB030140EAD570B6196D4111E0B2
:100420006D084FEA360645EAC0754FEA0752001BD1
:1004300061EB0201001C41F5801149084FEA3000D0
:100440000019514132462B4603B0BDE8F04F00F091
:100450008ABA0098012240000023D0EB020263EB2D
:10046000E073009821464FEAE074B8EB000061EBBE
:100470000401E9E783F000435BE781F0004158E7BE
:100480002DE9FE4F81EA030404F0004421F000410D
:1004900000944FF0000B23F0004350EA01045ED0BB
:1004A00052EA03045BD0C3F30A54C1F30A552C4447
:1004B000A4F2F3340194A0FB0254C1F3130141F4FC
:1004C0008011C3F3130343F4801301FB024400FBC8
:1004D000034E840A970A44EA815447EA8357A4FBEF
:1004E000076802958D0A05FB07854FEA932C04FBEC
:1004F0000C542705029D4FEA065847EA1637B5EB1C
:1005000008056EEB070C870E920E47EA811742EA48
:100510008312A7FB0201B6EB0B0164EB00042B0D69
:1005200043EA0C335E1844EB1C50DA465146E7FBB5
:100530000201C5F313044FEA0B3343EA14534FEAA5
:100540000432019C43EA0603A4F10C040294009CCB
:10055000CDE900B400F016FA03B0BDE8F08F00203A
:100560000146F9E72DE9F04D81EA030404F0004B60
:1005700021F0004514464FF0000A23F0004150EAF4
:10058000050220D054EA01021DD0C5F30A570246E5
:10059000C5F31303C1F31300C1F30A5640F48015E9
:1005A00043F48013A7EB0608101BD64608F2FD386B
:1005B00073EB050002D308F1010801E092185B41DA
:1005C000B8F1000F03DA00200146BDE8F08D0020ED
:1005D0004FF48011064684460EE0171B73EB0507A7
:1005E00005D3121B63EB050306434CEA010C4908D3
:1005F0004FEA300092185B4150EA0107EDD152EA10
:10060000030012D082EA040083EA0501084305D002
:10061000101BAB4106D20122002306E000224FF05E
:10062000004302E06FF0010253101AEB06004CEB9E
:10063000085110EB0A0041EB0B01BDE8F04D00F052
:1006400092B90EB5C10F80EAE0700844CA070021D4
:1006500040F233438DE80E000A460B4600F092F953
:1006600003B000BD70B5C1F30A5201F0004500248B
:10067000C1F3130140F2FF3341F480119A4201DAD1
:10068000002070BD40F233439A42A2F2334203DCB1
:10069000524200F072F800E090402C43F1D040420A
:1006A00070BD00F0004230F000400AD0C10D01F5ED
:1006B0006071C0F3160042EA0151C20840071143BD
:1006C000704700200146704730B5041E71F10004E8
:1006D00004DB4FF00044404264EB0101141E73F14F
:1006E000000405DB1C464FF00043524263EB040359
:1006F000994208BF904230BD01F0004330B421F070
:10070000004150EA010206D00A0DA2F56072C1F361
:100710001301002A02DC30BC00207047440F44EA79
:10072000C104C100E01830BC00EBC25000F0E4B8D6
:1007300030B50B46014600202022012409E021FAB1
:1007400002F59D4205D303FA02F5491B04FA02F5AE
:100750002844151EA2F10102F1DC30BD202A04DB81
:10076000203A00FA02F1002070479140C2F12003C4
:1007700020FA03F3194390407047202A04DB203A03
:1007800021FA02F00021704721FA02F3D040C2F1B1
:1007900020029140084319467047202A06DBCB17F8
:1007A000203A41FA02F043EAE07306E041FA02F32C
:1007B000D040C2F1200291400843194670472DE90C
:1007C000F05F82460078002715468B460AF1010447
:1007D000B946302801D09DB113E014F8010B012770
:1007E000782803D0582801D045B10AE00DB1102D6A
:1007F00007D10027102514F8010B02E0082500E0BE
:100800000A250026B0460EE005FB080005FB06F1B0
:10081000012701EB10461FFA80F8B6F5803F00D3A0
:10082000B94614F8010B294600F024F90028EBDA48
:10083000BBF1000F05D00FB1641E00E05446CBF8A9
:100840000040B9F1000F06D001F058FF022101600D
:10085000C81EBDE8F09F48EA0640FAE70FB400233F
:1008600000B589B00CA900910B996FF00042CB60E4
:100870001E4B06931E4B07930423CDE901321D4AFC
:10088000089202466B46002000F082F909B05DF83C
:1008900014FB70B586B006464FF0FF300091CDE9ED
:1008A0000101002015460C4604903246694604A812
:1008B000FFF7D4FF03460498211825B108B10A4672
:1008C00000E022462A6000280DD0002B02DD0098AF
:1008D000884208D0081B0094CDE9010432466946DD
:1008E00004A8FFF7BBFF06B070BD0000C90D0008EB
:1008F000E70D00082D0200080029A8BF7047401C22
:10090000490008BF20F00100704710B4B0FA80FC25
:1009100000FA0CF050EA010404BF10BC704749B162
:10092000CCF1200421FA04F411FA0CF118BF0121D2
:1009300021430843A3EB0C01CB1D4FEA00614FEAB2
:10094000102042BF002010BC704700EBC350104481
:100950000029A4BF10BC7047401C490008BF20F00C
:10096000010010BC704710B5141E73F1000408DAC2
:10097000401C41F1000192185B411A4301D120F063
:10098000010010BD2DE9F04D92469B4611B1B1FA20
:1009900081F202E0B0FA80F220329046FFF7DEFEEC
:1009A00004460F4640EA0A0041EA0B0153465A4604
:1009B000084313D0114653EA010019D0C8F1400290
:1009C0005046FFF7DAFE05460E4650465946424667
:1009D000FFF7C4FE084305D0012004E02046394655
:1009E000BDE8F08D0020054346EAE0762C4337430E
:1009F0000A986305E40AA0EB08000022FD0A44EA15
:100A000047540A3002D500200146E9E701051019D4
:100A10006941DDE9084500196941BDE8F04DA2E7EB
:100A2000C1F30A52C1F3130140F2FF3341F48011C4
:100A30009A4202DA00200146704740F233439A425C
:100A4000A2F2334202DC5242FFF797BEFFF786BEA6
:100A5000064C074D06E0E06840F0010394E807000B
:100A600098471034AC42F6D3FFF792FBF0500008E1
:100A7000105100083A2800D2303820F02002412AD4
:100A800001D3A2F13700884201D34FF0FF30704705
:100A90002DE9FF4F087881B09946FF2805D0491C01
:100AA0002D2804D00024002308E000230BE00124BB
:100AB000F9E703EB830300EB4303491C0878FF28A5
:100AC000F7D104B15B4200200090147801462D2C30
:100AD00001D02B2C04D1521C2D2C12D000240094B8
:100AE00000251678FF2E0ED00A24A0FB04C801FBB7
:100AF0000481002700FB0711521C16EB0C00694112
:100B0000EFE70124EBE7994450EA01020ED00024FC
:100B1000AA4D2646DFF8A88200F076F982468B4679
:100B2000B9F1000009DAC9F100071BE001980021C2
:100B3000C0E9001105B0BDE8F08F074612E0F807E4
:100B400007D022462B4630464146FFF799FC064621
:100B5000884622462B4610461946FFF791FC04466C
:100B60000D467F10002FEAD1B9F1000F32464346FF
:100B70005046594602DAFFF7F5FC01E0FFF780FC2A
:100B8000009A0AB181F00041019AC2E90001D1E75F
:100B90002DE9FF4F1F468DB0D7E901464FF0FF38D2
:100BA0002E2045464FF000090B90B9696D1C0E9838
:100BB0008847396A824688470028F6D1BAF1FF3F54
:100BC0000AD024F4D064002E11DDBAF12B0F08D026
:100BD000BAF12D0F0BD102E0404611B0ABE744F45F
:100BE0008064B9696D1C0E9888478246761E6946F6
:100BF000600501D52D2000E02B208DF8000001F1CB
:100C0000010B0DF1200809E0B9696D1C0E988847A9
:100C100082460F9844F40074761E0560002E02DDB3
:100C2000BAF1300FF0D00B998A453ED144F08004E0
:100C300006E00F99681CA9F1010944F400740860EA
:100C4000B9696D1C761E0E98884782463028F0D010
:100C50002BE00B998A4505D1200603D444F080048B
:100C6000761E18E0504601F025FE08B30DF1130181
:100C7000761E44F400748B4508D2AAF130000BF8BC
:100C8000010B200607D5A9F1010003E0200602D4DC
:100C900009F101008146A00502D50F99681C086082
:100CA000B9696D1C0E9888478246002ED1DC53E04E
:100CB000002E51DDBAF1650F02D0BAF1450F4BD1CC
:100CC000A00549D5B9696D1C24F44074761E0E98B0
:100CD00088478246002E0CDD2B2804D0BAF12D0F58
:100CE00007D144F48074B9696D1C0E988847824618
:100CF000761EE00501D52D2100E02B2108F8011B0F
:100D0000CDF82C8021E00DF12901761E44F4007409
:100D100088450CD2AAF1300010F0FF0088F80000DE
:100D200002D10B99884509D908F1010806E0E005D0
:100D300001D5244801E042F20F708146B9696D1C6B
:100D40000E98884782460F980560002E04DD5046B5
:100D500001F0B0FD0028D6D1F9690E988847FF2030
:100D60008BF8000088F800000020069007904B46A2
:100D70006A4608A906A8FFF78BFEA00502D46FF00B
:100D800001002AE714F0240F0AD0E00714D1DDE9AE
:100D900006123868031D3B600068C0E900120BE0D2
:100DA000DDE90601FFF7A8FC0146E00704D1386839
:100DB000021D3A600068016028460EE700002440EA
:100DC0000000F03FF1D8FFFF426842B1016811F81E
:100DD000013B23B1521EC0E90012184670470121A1
:100DE000C160881E704742685AB1C368016843B940
:100DF00083688B4205D0491E521CC0E900120020B6
:100E000070474FF0FF3070470EB540F23342029208
:100E10000022CDE900221346FFF7B4FD03B000BD68
:100E20003EB504460020009001900290684600F014
:100E300029FBBDF80000BDF8021040EA014000EEB9
:100E4000100AB8EEC00A84ED000ABDF80400BDF82F
:100E5000061040EA014000EE100AB8EEC00A84ED28
:100E6000010ABDF80800BDF80A1040EA014000EE92
:100E7000100AB8EEC00A84ED020A684600F0CEFA05
:100E8000BDF80000BDF80210D4ED000A40EA0140B0
:100E900000EE100AB8EEC00A30EE200A84ED000A17
:100EA000BDF80400BDF80610D4ED010A40EA014087
:100EB00000EE100AB8EEC00A30EE200A84ED010AF6
:100EC000BDF80800BDF80A10D4ED020A40EA01405E
:100ED00000EE100AB8EEC00A30EE200A84ED020AD5
:100EE0000021204600F066F83EBD3EB504460020D5
:100EF000009001900290684600F02CFBBDF80000C5
:100F0000BDF8021040EA014000EE100AB8EEC00A37
:100F100084ED000ABDF80400BDF8061040EA014067
:100F200000EE100AB8EEC00A84ED010ABDF8080010
:100F3000BDF80A1040EA014000EE100AB8EEC00AFF
:100F400084ED020A684600F0D1FABDF80000BDF851
:100F50000210D4ED000A40EA014000EE100AB8EE9B
:100F6000C00A30EE200A84ED000ABDF80400BDF886
:100F70000610D4ED010A40EA014000EE100AB8EE76
:100F8000C00A30EE200A84ED010ABDF80800BDF861
:100F90000A10D4ED020A40EA014000EE100AB8EE51
:100FA000C00A30EE200A84ED020A0121204600F03A
:100FB00001F83EBD2DE9F04106462DED028B0D46B0
:100FC00000249FED258A35B1012D19D0022D22D0A4
:100FD000032D39D12CE006EB84073868FFF761FB5D
:100FE0009FED1E1B53EC112BFFF74AFA9FED1D1BC3
:100FF00053EC112BFFF7B6FAFFF77EFB386023E0C6
:1010000006EB8400DFED190A90ED000A80EE201A4D
:1010100080ED001A18E006EB8400DFED150A90ED74
:10102000000A20EE200A20EE080A80ED000A0BE0FC
:1010300006EB8400DFED0F0A90ED000A20EE200A97
:1010400020EE080A80ED000A641C032CBBDBBDEC1B
:10105000028BBDE8F08100000000003000000000BD
:101060000000D03F0000000000408F410000204BF6
:101070000000B4430000C84210B501F0C7F880205A
:1010800000F0DCFE4FF4FA7000F076FC07214FF41C
:10109000BC4000F0B3FA43F60A714FF4CC4000F0C4
:1010A000ADFA012000F0CAFE09214FF4C84000F05B
:1010B000A5FABDE8104001A001F0FEBA0A3C3C2DA3
:1010C000414449532D494E464F2D3E3E204144490F
:1010D0005320696E697469616C697A6564207375FF
:1010E000636365737366756C6C79210A0000000098
:1010F00070B50546322000F049FC4FF4007000F056
:101100005DFA0446002C33D02FA001F0D5FA102C44
:101110001ED006DC022C0FD0042C11D0082C06D1D6
:1011200012E0202C18D0402C1AD0802C1CD02FA0DC
:1011300001F0C2FA002070BD36A001F0BDFAF9E757
:10114000444801F0B9FAF5E7434801F0B5FAF1E790
:10115000424801F0B1FAEDE741A001F0ADFAE9E74C
:101160004BA001F0A9FAE5E7554801F0A5FAE1E73F
:10117000082D18D006DC012D21D0022D1BD0042D06
:1011800004D114E0102D0AD0802D04D04DA001F020
:1011900093FA012070BD56A001F08EFAF9E75FA026
:1011A00001F08AFAF5E769A001F086FAF1E773A089
:1011B00001F082FAEDE77DA001F07EFAE9E78AA06E
:1011C00001F07AFAE5E700000A3C3C2D414449531E
:1011D0002D4552524F522D3E3E20414449532065E9
:1011E00072726F723A0D0A0A0000000009546865B5
:1011F00072652077657265206D756C7469706C65B9
:10120000207265676973746572206572726F72739C
:10121000210D0000094461746170617468206F766B
:10122000657272756E21506C6561736520696E69B7
:1012300074696174652061207265736574207573CB
:10124000696E6720746865205253542070696E2E51
:101250000D000000A44F0008704E0008384F000831
:101260000953656E736F72206661696C75726521D2
:10127000506C656173652072657065617420746877
:10128000652073616D6520746573742E0D00000018
:10129000094D656D6F7279206661696C75726521A3
:1012A000506C656173652072657065617420746847
:1012B000652073616D6520746573742E0D000000E8
:1012C000C04E00080A3C3C2D414449532D494E462E
:1012D0004F2D3E3E204F7065726174696F6E2069BC
:1012E0007320636F6D706C65746564210D0A000076
:1012F0000A3C3C2D414449532D494E464F2D3E3E1C
:1013000020536F667477617265207265736574200F
:1013100073756363656564210D0A00000A3C3C2D0A
:10132000414449532D494E464F2D3E3E20466C6167
:101330007368206D656D6F727920746573742073A6
:10134000756363656564210D0A0000000A3C3C2D4D
:10135000414449532D494E464F2D3E3E20466C6137
:101360007368206D656D6F72792075706461746546
:101370002073756363656564210D0A000A3C3C2D8A
:10138000414449532D494E464F2D3E3E2053656EF4
:10139000736F722073656C66207465737420737547
:1013A000636363656564210D0A0000000A3C3C2DFF
:1013B000414449532D494E464F2D3E3E20466163E0
:1013C000746F72792063616C6962726174696F6EA7
:1013D00020726573746F72652073756363636565EE
:1013E00064210D0A000000000A3C3C2D4144495391
:1013F0002D494E464F2D3E3E204269617320636F5A
:101400007272656374696F6E2075706461746520B3
:101410007375636363656564210D0A0010B5044646
:101420004FF4984000F0CAF82080322000F0AEFA65
:101430004FF49C4000F0C2F86080322000F0A6FA21
:101440004FF4A04000F0BAF8A080322000F09EFADD
:101450004FF4A44000F0B2F8E080322000F096FA99
:101460004FF4A84000F0AAF82081322000F08EFA54
:101470004FF4AC4000F0A2F86081BDE8104032208B
:1014800000F084BA10B504464FF4805000F096F88E
:101490002080322000F07AFA4FF4905000F08EF85D
:1014A0006080322000F072FA4FF4A05000F086F80D
:1014B000A080322000F06AFA4FF4B05000F07EF8BD
:1014C000E080322000F062FA4FF4C05000F076F86D
:1014D0002081322000F05AFA4FF4D05000F06EF81C
:1014E0006081BDE81040322000F050BA10B50446CB
:1014F0004FF4804000F062F82080322000F046FA7D
:101500004FF4844000F05AF86080322000F03EFA38
:101510004FF4884000F052F8A080322000F036FAF4
:101520004FF48C4000F04AF8E080322000F02EFAB0
:101530004FF4904000F042F82081322000F026FA6B
:101540004FF4944000F03AF86081BDE8104032203A
:1015500000F01CBA10B504464FF4806000F02EF87D
:101560002080322000F012FA4FF4C06000F026F81C
:101570006080322000F00AFA4FF4006000F01EF89C
:10158000A080322000F002FA4FF4206000F016F83C
:10159000E080322000F0FAF94FF4406000F00EF8DD
:1015A0002081322000F0F2F94FF4606000F006F87C
:1015B0006081BDE81040322000F0E8B970B5054602
:1015C000322000F0E3F90C4940240C80322000F076
:1015D000DDF9284600F086FE284600F083FE40F63E
:1015E000FF7000F07FFE05460349891E0C80322003
:1015F00000F0CCF9284670BD1A08024070B5CAB296
:10160000024342F4004400F5807040EA112080B2A9
:1016100040F40045322000F0B9F90A48402606801F
:10162000322000F0B3F9204600F05CFE284600F0BE
:1016300059FE0448801E0680BDE87040322000F04C
:10164000A5B900001A080240FEE700F081BB00F0D7
:101650007DBD0000074A904201D2074801E00548DD
:101660001038064A8B0001EA020101D5C1607047BB
:101670008160704710640240006002407D0F7D0F62
:10168000074A904201D2074801E005481038064A4F
:101690008B0001EA020101D5C1607047816070478B
:1016A00010640240006002407D0F7D0F002904D0CD
:1016B000016841F0010101607047016821F00101FA
:1016C000016070472DE9F043016821F001010160DC
:1016D0000021016041608160C1600161212141619F
:1016E0003E493E4A10394FF03D08904203D1C1F8BF
:1016F0000880BDE8F083394A4FF47465183290428F
:1017000001D18D60F5E7354A4FF4741630329042BE
:1017100001D18E60EDE7314A4FF074674832904254
:1017200001D18F60E5E72D4B2D4A6033984201D1FE
:10173000CA60DEE7294C2B4B7834A04201D1CB6044
:10174000D7E7DFF898C0284C0CF1900C604501D128
:10175000CC60CEE7DFF884904FF03D5C09F1A8093A
:10176000484502D1C1F80CC0C3E72049DFF87C909E
:101770000839484502D1C1F80080BAE7DFF86C802B
:1017800008F11808404501D10D60B2E7174D30351A
:10179000A84201D10E60ACE7144D4835A84201D1F2
:1017A0000F60A6E7114D11496035091FA84201D10C
:1017B0000A609EE70D4A7832904201D10B6098E7AB
:1017C0000A4A9032904201D10C6092E7074AA8324F
:1017D00090428ED1C1F800C08BE70000106002403B
:1017E0003D000020400F002000003D20106402401A
:1017F000014600200968C90700D001207047000099
:1018000030B500240F4A904201D20F4A01E00D4A40
:10181000103A0E4B194205D01E2303EAD125036866
:101820002B4002E0406900F08003880001D5506839
:1018300000E01068064A1040084201D003B10124BC
:10184000204630BD10640240006002403C0F3C0F57
:101850007D0F7D0F0B0609D522B1436943F080034C
:10186000436103E0436923F080034361802905D08D
:1018700001F01E011AB102680A4302607047026853
:101880008A4302607047000030B50368124A134073
:10189000CC680A682243D1E905452C432243CC6930
:1018A00022430C6A22434C6A22438C6A22434C6BCB
:1018B00022438C6B22431A430260426922F00703E1
:1018C000D1E90B2422431A4342610A6942604A6803
:1018D00082608968C16030BD3F801CF070470000A5
:1018E00070B586B00121084600F094FB012110205C
:1018F00000F0ACFB1E4E07220A21304600F0B0F982
:1019000007220921304600F0ABF900248DF816407B
:1019100001208DF8170002258DF814504102049122
:101920008DF8155004A9304600F05CF98DF814507C
:101930006802049004A9304600F054F94FF4E130F5
:101940000090ADF80440ADF80640ADF80840ADF8A1
:101950000C400C20ADF80A00064C6946204600F009
:1019600047FE0121204600F025FE06B070BD0000B4
:10197000000002400010014001B503480099416099
:1019800041680029FCD108BD44000020C000401E71
:10199000411CFCD17047000010B5082000F03CF855
:1019A000002807D0044901200860BDE81040082045
:1019B00000F004B810BD00002800002001490860B4
:1019C00070470000143C01407FB50121084600F03B
:1019D00021FB0121880300F039FB00F0C7FA08243D
:1019E000029400258DF80C508DF80F5002A909487B
:1019F00000F0F8F80321002000F000FD00948DF8BD
:101A000004508DF8054001208DF80600684600F06E
:101A10000DF87FBD0000024001460020024A126816
:101A20000A4200D001207047143C014030B51B4AE7
:101A300083790168002B2AD013688B431360111D32
:101A40000B680468A3430B60017911440B680468B8
:101A500023430B60114C08342168036899432160CB
:101A6000231D19680568A94319604179102905D01B
:101A700011440A68006802430A6030BD21680268A8
:101A800011432160196800680143196030BD007975
:101A9000104402688A43026030BD0000003C0140EF
:101AA0002DE9F0470F46002A70D00C2A6ED8066840
:101AB00044688568C168D0F81090D0F814A0BBB312
:101AC00001EB0208B8F1180F19D3A8F11808012C7E
:101AD00016D0032C14D0052C12D0072C10D0082CB3
:101AE0000ED00A2C0CD0042C11D0062C0FD0092CAF
:101AF0000DD00B2C0BD0022C10D00C2C1CD066E07F
:101B00001F2D01D26D1C62E00125641C5FE01E2DBB
:101B100001D26D1C5BE00125641C58E01D2D08D02E
:101B20001C2D03D1F0B200F0DDF910B16D1C4EE0B8
:101B30000AE0012503244AE01F2D01D26D1C46E076
:101B400001250124761C42E0914202D3A1EB020858
:101B50003DE0A1EB020808F11808022C17D0042C74
:101B600015D0062C13D0082C11D0092C0FD00B2C1B
:101B70000DD0052C12D0072C10D00A2C0ED00C2C16
:101B80000CD0032C11D0012C1AD020E028E0012D1C
:101B900001D96D1E1BE01F25641E18E0012D01D91F
:101BA0006D1E14E01E25641E11E0012D03D1F0B25C
:101BB00000F098F908B16D1E09E01C25022406E02A
:101BC000012D01D96D1E02E01F250C24761E3E60FA
:101BD0007C60BD60C7F80C80C7F81090C7F814A0EF
:101BE000BDE8F0872DE9F041002201274FF0030CFA
:101BF00007FA02F50B682B40AB422CD10668530064
:101C00000CFA03F4A64306600E79D0F800809E40DB
:101C100046EA080606600E79012E01D0022E12D186
:101C20008668A64386604E79D0F808809E4046EAD2
:101C3000080686604668AE43466045688E799640E1
:101C4000B6B235434560C568A543C560CC799C40B4
:101C5000C3681C43C460521C102AC9D3BDE8F0817C
:101C600010B54B07DB0E9A40C90800EB8100016AF2
:101C70000F249C40A1430162016A1143016210BD1F
:101C800010B500F08FF8BDE8104000F001B800007A
:101C900010B590B00121480500F0BCF91F4C20465A
:101CA000FFF710FD2046FFF7A3FD0028FAD14FF003
:101CB000006001901A4802901A4803900020049096
:101CC0004FF4007105910690490007910890099022
:101CD00089100A9109020B910C9003210D910E902D
:101CE0000F9001A92046FFF7CFFD00F01DF801225B
:101CF00018212046FFF7AEFD01212046FFF7D6FC54
:101D00002046FFF775FD0128FAD105480122402140
:101D1000001F00F05BFC10B010BD000088600240A6
:101D200004440040F800002008B54FF4C06000F003
:101D300065F910208DF8000001208DF801000021C8
:101D40008DF802108DF80300684600F023F908BDF5
:101D50002DE9F0410F4F104E39463046FFF750FD48
:101D60000E4D012430B16C7039463046BDE8F0416B
:101D7000FFF786BC0A4F30463946FFF741FD002881
:101D800006D02C7039463046BDE8F041FFF778BCEC
:101D9000BDE8F08100440020886002404C00002033
:101DA0000088002070B586B00121084600F032F9A5
:101DB0000121480400F03CF91E4E07220321304661
:101DC000FFF74EFF072202213046FFF749FF0024AC
:101DD0008DF8164001208DF8170002258DF814505B
:101DE000042104918DF8155004A93046FFF7FAFE3E
:101DF0008DF814500820049004A93046FFF7F2FE35
:101E00004FF416500090ADF80440ADF80640ADF820
:101E10000840ADF80C400C20ADF80A00064C6946AD
:101E2000204600F0E5FB0121204600F0C3FB06B090
:101E300070BD0000000002400044004010B50446A0
:101E4000C820FFF7A3FD802C02D1FA20FFF794FDF4
:101E500021464FF4D040FFF7D1FB802C02D1FA206D
:101E6000FFF78AFDC820FFF791FD2046BDE810402E
:101E7000FFF73EB9FEE7000010B586B000200390E2
:101E80000490059000900190029003A8FEF7C8FF0F
:101E90006846FFF72AF80098FEF703FC0F4CC4E9E8
:101EA00000010198FEF7FDFBC4E902010298FEF76C
:101EB000F8FBC4E904010398FEF7F3FB084CC4E9FE
:101EC00000010498FEF7EDFBC4E902010598FEF756
:101ED000E8FBC4E9040106B010BD0000C800002002
:101EE000E000002000F5FA60810701D00020704773
:101EF0004FF4C871B0FBF1F201FB120131B1642162
:101F0000B0FBF1F201FB12000028F0D00120704775
:101F10002DE9FC410121202000F07CF840240094B0
:101F200001208DF8040000218DF806108DF80700BF
:101F30008DF805100B4F69463846FFF753FE802693
:101F4000009669463846FFF74DFEA50000956946A4
:101F50003846FFF747FE03481830048006800580A6
:101F6000BDE8FC8100140240FEE7704708B54FF45D
:101F7000C06000F043F809208DF8000001208DF8C2
:101F800001008DF802008DF80300684600F002F8A9
:101F900008BD000030B50F23C27801250178002A62
:101FA0001FD0154A126802F4E062C2F5E062C2F383
:101FB0000722C2F10404D3404278A24084781C4036
:101FC0001443220101F1E02181F80024007800F09F
:101FD0001F018D404009800000F1E020C0F8005151
:101FE00030BD01F01F0085404809800000F1E0206D
:101FF000C0F8805130BD00000CED00E002490843FC
:1020000002490860704700000000FA050CED00E08E
:1020100070470000054A002903D011680143116090
:1020200070471168814311607047000030380240EA
:10203000054A002903D011680143116070471168F7
:10204000814311607047000040380240054A002972
:1020500003D011680143116070471168814311601A
:10206000704700004438024070B5244B196801F0F5
:102070000C01234C00291ED0224E04291DD0082912
:102080001DD00460196801F0F00109091E4A545C72
:102090000168E14041601C6804F4E054A40A145D46
:1020A00021FA04F484601B6803F460435B0BD25C88
:1020B000D140C16070BD0460E4E70660E2E70F4A0A
:1020C000121F1168C1F38055116801F03F0135B14D
:1020D000B6FBF1F11468C4F38814614305E0B4FB66
:1020E000F1F11468C4F3881461431268C2F3014229
:1020F000521C5200B1FBF2F10160C3E70838024004
:102100000024F40040787D0114000020014908609B
:1021100070470000382C014001460020024A126836
:102120000A4200D001207047342C014000F022B850
:10213000054A002903D011680143116070471168F6
:1021400081431160704700003C2C01400748006843
:1021500010F0C05F08D006490120486103484FF0E5
:10216000C2515830FFF776BA704700000064024051
:102170005000002070B54FF480752846FFF7CCFF63
:10218000214C38B1002020702846FFF7BFFF012006
:10219000206132E00220FFF7BFFF28B10220FFF7E5
:1021A000B5FF0220207028E00820FFF7B5FF28B116
:1021B0000820FFF7ABFF042020701EE02020FFF76F
:1021C000ABFF28B12020FFF7A1FF0620207014E00C
:1021D0001020FFF7A1FF28B11020FFF797FF05207F
:1021E00020700AE04FF400752846FFF795FF20B1F4
:1021F0002846FFF78BFF0720207000214CF23A3071
:10220000FFF796FF207870BD50000020F0B587B032
:1022100001210620FFF7FEFE01210803FFF716FF4C
:102220002D4E052203213046FFF71AFD0522042119
:102230003046FFF715FD052211463046FFF710FD29
:102240000820009002258DF805508DF804500024D8
:102250008DF806408DF8074069463046FFF7C2FC0E
:102260001021009169463046FFF7BCFC2020009009
:1022700069463046FFF7B6FC4027009701268DF8E7
:10228000046069461548FFF7ADFC14481830078014
:10229000ADF808404FF48270ADF80A00A802ADF81E
:1022A0000C00ADF80E50ADF810608010ADF81200C3
:1022B0002820ADF81400ADF816400720ADF818003E
:1022C000074C02A9204600F05AF80121204600F0F0
:1022D0003FF807B0F0BD00000004024000080240D3
:1022E000003001402DE9F0410746174C4FF480556E
:1022F0002560164E08E02068411E216004D2BDE82A
:10230000F041022000F058B80221304600F02CF8CD
:102310000028F0D03946304600F02FF8256008E05C
:1023200021684A1E226004D2BDE8F041032000F07B
:1023300043B80121304600F017F80028F0D03046AD
:10234000BDE8F04100F017B8400000200030014027
:10235000002904D0018841F04001018070470188C4
:1023600021F04001018070470246002012890A4294
:1023700000D001207047808970478181704730B557
:10238000028802F441530A884C88CD8822438C8805
:102390002C4322430C8922434C8922438C892243BB
:1023A000CC8922431A430280828B22F4006282830A
:1023B000098A018230BD000010B5014602A000F07C
:1023C0007BF9002010BD00000A3C3C2D41444953DC
:1023D0002D4552524F522D3E3E2053504920B5C8F4
:1023E000B4FDB3ACCAB1216572726F72436F64659C
:1023F000203D2025640A00007047000010B58A07C0
:10240000120F0F23934021F003040649214401F6E3
:1024100008010C689C430C600B68904003430B6000
:1024200010BD0000003001400CB500220192009266
:102430002749086840F4803008604FF4A0430868DA
:1024400000F4003000900198401C0190009810B9F1
:1024500001989842F3D10868800302D501200090CA
:1024600000E000920098012831D1194840300268FC
:1024700042F0805202601748026842F44042026013
:102480001348083002680260026842F400420260A9
:10249000026842F4A0520260021F0F4B13600A68E8
:1024A00042F080720A600A689201FCD50B4A40F241
:1024B00005711160016821F003010160016841F0BC
:1024C000020101600168C1F381010229FAD10CBD4A
:1024D000003802400070004019544007003C0240A0
:1024E00010B500F05DF80020054A52F8201011B137
:1024F000491E42F82010401CC0B20328F5D310BD7D
:10250000BC0000200D484FF47A710068B0FBF1F078
:10251000401EB0F1807F01D301200AE04FF0E0219E
:102520004861074AF0201070002088610720086188
:102530000020002800D0FEE77047000000000020C7
:1025400023ED00E010B51248016841F4700101600C
:102550001048016841F0010101600E4A0021083273
:10256000116002680C4B1A400260031D0B4A1A608E
:10257000026822F48022026006480C300160FFF7F6
:1025800053FF03494FF000608039086010BD000020
:1025900088ED00E000380240FFFFF6FE1030002416
:1025A00003484168002902D04168491E41607047D4
:1025B00044000020002904D0818941F40051818128
:1025C0007047818921F4005181817047002A03D02E
:1025D000828A0A4382827047828A8A438282704753
:1025E0000246002012880A4200D0012070470000F5
:1025F0007FB504460D46208A20F44051E888084300
:102600002082A08941F20C618843A9882A8911435C
:102610006A8902431143A181A08A20F44071A889EC
:102620000843A0826846FFF71FFD1E48844202D07F
:102630001D48844201D1039800E00298A189090451
:1026400008D500EBC00101EB001029684900B0FB80
:10265000F1F007E000EBC00101EB001029688900F0
:10266000B0FBF1F06422B0FBF2F109010B096FF04D
:1026700018056B4300EB8300A3891D044FF0320360
:1026800007D503EBC000B0FBF2F000F007000843F1
:1026900006E003EB0010B0FBF2F000F00F0008437F
:1026A00020817FBD0010014000140140C1F30801EA
:1026B00081807047FEE700000FB4054B10B503A9F9
:1026C000044A029800F04EF910BC5DF814FB0000BB
:1026D000AD300008AC0000207CB5491E1C461546F4
:1026E000CDE90001044B6A462146284600F03AF93C
:1026F000009A002111707CBD93300008004870479B
:10270000B80000200000000000B583B09FED060B6C
:102710000A4601468DED000B6846FEF7BAF89DEDBE
:10272000000B03B000BD000000000000000000002E
:1027300002E008C8121F08C1002AFAD1704770478A
:10274000002001E001C1121F002AFBD170470000E8
:102750002DE9FF5FDDE90220010DDDF838B002430D
:1027600018D044F61050A1F2FF3141430D140F98D8
:10277000012820D0A5EB0B00401C5FEA000A4FF0B7
:102780000004474EDFF81C91A046504616D5CAF10A
:10279000000728E00F98012443A2012808D0002157
:1027A00000980F9BC0E90021C0E90243BDE8FF9FEC
:1027B0006FEA0B01F4E7CBF10000DEE7074612E019
:1027C000F80707D02246334640464946FDF758FEF3
:1027D000804689462246334610461946FDF750FE8C
:1027E00004460E467F10002FEAD1DDE90201BAF15E
:1027F000000F42464B4602DAFDF742FE01E0FDF7CC
:10280000B1FE04460E460022284BFDF75DFF03D8BB
:102810004FF0FF30014607E00022254B20463146AD
:10282000FDF787FDFEF7FCF8102409E0002C0ADB19
:102830000A220023FDF7C4FC019B30321A55641EA6
:1028400050EA0102F2D1641C019AC4F1110314444C
:102850000F9A012A03D0012208430DD10AE0084350
:1028600004D000204FF0110B0F9080E7A3EB0B0575
:102870006D1E0DE05B4504DD4FF0000205F1010522
:1028800004E003DA4FF00002A5F10105002AECD0C4
:1028900000980F99C0E90231C0E9004586E70000C1
:1028A000000024400000F03F300000000000F04332
:1028B0000000E03F30380A2801D201207047002094
:1028C00070470000FEB5002402F114052E1F331FCF
:1028D00006290BD0082914D0092912D00A2910D0B2
:1028E00010A001F021F8CCB10020FEBDCDE90065BB
:1028F00015A202F077F9032801D00024F3E70124A0
:10290000F1E71832CDE90065029212A202F06AF9ED
:10291000042801D00024E6E70124E4E74FF0FF306B
:10292000FEBD00005061727365206F662074696D92
:1029300065206572726F722028666F726D617420F7
:102940006572726F72292100253264253264253246
:10295000640000002532642532642532642E25642B
:10296000000000002DE9FF4F95B09B4689460646C2
:1029700000250FE2252877D100242746F84A0121B7
:10298000059400E0044316F8013F203B01FA03F0F0
:102990001042F7D130782A2811D06FF02F03307809
:1029A000A0F13002092A16D8059A44F0020402EB7D
:1029B000820203EB42021044761C0590EFE759F8BF
:1029C000042B0592002A03DA504244F40054059087
:1029D00044F00204761C30782E2816D116F8010F28
:1029E00044F004042A280DD06FF02F023078A0F1B3
:1029F0003003092B09D807EB870302EB4303C71801
:102A0000761CF3E759F8047B761C30786C280FD0DD
:102A100006DC4C2817D068280DD06A2814D104E0B1
:102A2000742810D07A280FD10DE044F400140AE085
:102A300044F4801401E044F440147278824202D1DC
:102A400004F58014761C761C307866280BD013DCD5
:102A5000582877D009DC002875D04528F6D04628BC
:102A6000F4D047281AD19DE118E0632835D06428B6
:102A700079D0652812D195E1702873D008DC6728D9
:102A8000F1D069286FD06E280DD06F2806D1B5E03F
:102A900073282CD0752875D0782874D05A46179989
:102AA00090476D1C75E1C4F30250022809D0032839
:102AB0000DD0D9F8001004280DD00D6009F10409DB
:102AC00067E1D9F80010EA17C1E90052F6E7D9F832
:102AD00000100D80F2E70D70F0E719F8041B8DF877
:102AE000001000208DF80100EA46012003E059F8AB
:102AF00004AB4FF0FF3061074FF0000102D40DE04E
:102B000008F101018846B9420FDA8045F8DB1AF86E
:102B100008100029F4D108E008F10101884681423B
:102B2000FADB1AF808100029F6D105985B46A0EBED
:102B3000080721463846179A00F094FA284400EB1B
:102B4000080507E04DE029E10DE01AF8010B5A46AF
:102B500017999047B8F10108F7D25B4621463846ED
:102B6000179A13E142E00A220092C4F302524FF096
:102B7000000A022A08D059F804CB032A4FEAEC7164
:102B80000AD00DE029E02AE009F1070121F007024F
:102B9000F2E802C1914609E00FFA8CFC4FEAEC71B1
:102BA000042A03D14FFA8CFC4FEAEC71002907DAB2
:102BB0000A460021DCF1000C61EB02012D2202E04B
:102BC000220504D52B228DF80420012203E0E20720
:102BD00001D02022F7E7904659E00A2102E01022B6
:102BE0000DE010214FF0000A00910BE010224FF091
:102BF000000A44F004040827009203E008224FF082
:102C0000000A0092C4F30252022A05D059F804CBFC
:102C10000021032A08D009E009F1070121F0070289
:102C2000F2E802C1914605E01FFA8CFC042A01D1AA
:102C30000CF0FF0C4FF00008220728D5702806D0B2
:102C4000009B83F0100353EA0A0305D00EE04022F4
:102C50008DF80420012208E05CEA010206D030224F
:102C60008DF804208DF8050002229046009B83F029
:102C7000080353EA0A030AD15CEA010201D16207A0
:102C800005D530228DF804204FF001087F1E58280A
:102C900004D034A003900EA802900DE036A0F9E70E
:102CA00053466046009AFDF78BFA84460398825C8F
:102CB0000298401E029002705CEA0100F0D1029876
:102CC00006A9081A00F1200A600702D524F480340E
:102CD00000E00127574502DDA7EB0A0000E00020D5
:102CE00000EB0A01009005984144401A0590E0036A
:102CF00006D45B462146179A059800F0B3F90544BF
:102D0000002706E001A85A46C05D179990476D1C40
:102D10007F1C4745F6DBE0030CD55B462146179A3E
:102D2000059800F09FF9054404E030205A461799B1
:102D300090476D1C0099481E00900029F5DC08E0C2
:102D4000029802995A460078491C029117999047B7
:102D50006D1CBAF10001AAF1010AF1DC65E1000085
:102D60000928010030313233343536373839616261
:102D70006364656600000000303132333435363725
:102D800038394142434445460000000000F058F9FC
:102D90000544761C307800287FF4ECAD19B0284645
:102DA000BDE8F08F620700D4062709F1070222F080
:102DB000070CFCE80223E14603F000485FEA080C38
:102DC00002D00FF2702C0DE05FEA045C02D50FF226
:102DD000682C07E05FEAC47C02D00FF2602C01E0AF
:102DE000AFF2700C4FF0FF3823F00043CDF850C025
:102DF00065280CD006DC452809D046281DD0472878
:102E00003DD13DE0662818D067287ED138E000210A
:102E1000112F01DB112000E0781CCDE9000106A98B
:102E20000EA8FFF795FCDDE90F010E9A0391002132
:102E3000009207F1010A04914DE04FF00040009725
:102E4000CDE9011006A90EA8FFF782FCDDE90F020B
:102E500003920E9B11990022DDF80CA000930492BE
:102E600011B9791C00EB010AB7EB0A0004D4C0F1D8
:102E7000FF3007F1010A0490AAEB0700019044E03B
:102E8000012F00DA01270021112F01DD112000E0C0
:102E90003846CDE9000106A90EA8FFF759FCDDE987
:102EA0000F010E9A0391002104910092BA46210766
:102EB0000CD40399514500DA8A46BAF1010F05DDB9
:102EC000009AAAF10101515C302908D0B84202DA17
:102ED00010F1040F06DA0121CDE9011015E0AAF185
:102EE0000101E9E7002805DC049901440491AAEBFB
:102EF000000102E0411C514500DD8A460499401A58
:102F0000401C01904FF000400290200704D401982B
:102F1000504501DBCDF8048000208DF84F00029869
:102F20000DF14F07B0F1004F25D02B200E900298E5
:102F30004FF0020800280CDA404202902D200E903B
:102F400007E00A210298FDF7F3FB3031029007F801
:102F5000011DB8F10001A8F10108F2DC0298002877
:102F6000EFD1791E0E980870307800F0200040F004
:102F7000450007F8020D12A8C01B00F107081498BD
:102F8000007800B1012000EB0A01019801EBE0712B
:102F900005984144401A401E0590E00306D45B4664
:102FA0002146179A059800F05DF8054414980078BA
:102FB00018B15A46179990476D1CE00324D55B461B
:102FC0002146179A059800F04DF805441CE0049836
:102FD000002807DBDDE90301884203DD0098405C3F
:102FE000179901E0179930205A469047049805F147
:102FF0000105401C04900198401E019004D12E2030
:103000005A46179990476D1CBAF10001AAF1010ABE
:10301000DDDC05E017F8010B5A46179990476D1C47
:10302000B8F10001A8F10108F4DC5B462146179ACB
:103030000598ABE62D0000002B00000020000000EA
:103040002DE9F041044600251E461746880404D4A5
:1030500005E039462020B0476D1C641EF9D528468E
:10306000BDE8F0812DE9F041044600251E4690465A
:10307000C80301D5302700E02027880404D505E0E7
:1030800041463846B0476D1C641EF9D52846BDE858
:10309000F0814A68002A06D00A68531C0B60107041
:1030A0004868401E486070477047000070B504468D
:1030B000064DE1B22846FFF7F9FA80212846FFF7CE
:1030C0008FFA0028F9D0204670BD000000100140A2
:1030D00010B5002821D0114B0022001F196803E011
:1030E000814203D80A4649680029F9D152B11368D0
:1030F000841A9C4204D1006818441060104602E013
:10310000506000E0186039B102680B1A934203D195
:103110000B681A4402604968416010BDB00000208D
:103120007047000094B000271197129713970E97DD
:103130000F971097FEF7ECFE214840210180802177
:1031400001801F498015891C0880FEF7C9FBFEF726
:1031500097FDFFF7D7F9FEF737FCFDF78DFF194C08
:103160006760194DA5F1180620680028FCD000F012
:103170006DFBFEF781FE95ED040B14A08DED0C0B9D
:1031800095ED020B8DED0A0B95ED000B8DED080B07
:1031900096ED040B8DED060B96ED020B8DED040BF9
:1031A00096ED000B8DED020B94ED020B8DED000BF7
:1031B00094ED040B53EC102BFFF77EFA2760D3E756
:1031C0001814024028000020E0000020242C2533A1
:1031D0002E35662C25332E35662C25332E35662C60
:1031E00025332E35662C25332E35662C25332E358A
:1031F000662C25332E35662C25332E35662C230080
:10320000F0B50B30154D20F007010024144A0FE0F3
:1032100003688B420BD38B4205D95E1A431847686B
:10322000C3E9006700E04368136002C004E0021DC8
:1032300010680028ECD12046002802D1286808B187
:103240000020F0BD064A07481060074A121A22F013
:103250000702C0E9002401202860D7E7B40000205D
:10326000B0000020FC030020F81300202DE9F041FD
:10327000002602784A6290ED280B81ED0A0B90ED52
:103280002A0B81ED0C0B90ED2C0B81ED0E0B002326
:103290004FF0010C002200EB83070DE0BC6854B135
:1032A00002EB820501EB8505D5F87083444502D118
:1032B000C5F874C3761C521CD1F86C439442EDDC03
:1032C0005B1C252BE6DBC1F86863086840F08000D2
:1032D0000860BDE8F08170B5D0E900329A4233DC75
:1032E0002523B3EB820F2FDB012A01DA0122426092
:1032F0008268C1F86C234268521E92008368141DD4
:10330000A34201DA9D1A00E00425002216E043687A
:103310005B1E02EB830302EB820403EB830300EBEF
:10332000840401EB830303F55C73E6681E60666941
:103330009E60A669DE60E4691C61521CAA42E6DB5D
:10334000086840F04000086070BD70B504460D4646
:10335000E0682861206968616069A861A069E86126
:10336000E06B286294ED120B85ED0C0B94ED140BC1
:1033700085ED140B94F828004E281AD094ED080B14
:1033800051EC100B81F00041C5E9100194F83800B0
:10339000452811D094ED0C0B51EC100B81F000413D
:1033A000C5E91201206CE867286840F48050286065
:1033B00070BDD4E90801E7E7D4E90C01F0E770B586
:1033C00005460C4695F83800412802D0562809D009
:1033D0000CE0216A022001B92062616A012905D14D
:1033E000606203E00020206201206062287A4E289B
:1033F00023D095ED000B51EC100B81F00041C4E996
:103400001001287E45281BD095ED040B51EC100BC4
:1034100081F00041C4E91201A86A2061E86A606194
:10342000286BA061686BE06195F8390084F878003A
:10343000206840F40070206070BDD5E90001DEE72F
:10344000D5E90401E6E7000070B505460C46287F83
:10345000412802D0562809D00CE0216A022001B987
:103460002062616A012905D1606203E000202062C8
:10347000012060621C222946201DFCF7E0FE95F821
:1034800028004E2830D095ED080B51EC100B81F040
:103490000041C4E9100195F83800452827D095ED82
:1034A0000C0B51EC100B81F00041C4E9120195EDB9
:1034B000100B84ED160B95ED100B9FED0E1B51ECD0
:1034C000100B53EC112BFCF7DBFFC4E9180195ED51
:1034D000120B84ED1A0B95F8590084F878002068D7
:1034E00040F40060206070BDD5E90801D1E7D5E95E
:1034F0000C01DAE76F1283C0CAA1FD3F90ED000B0B
:1035000081ED1A0B90ED040B81ED1C0B90ED080B77
:1035100081ED160B90ED0C0B81ED180B90F8390036
:1035200081F87800086840F480600860704710B542
:103530000C4601461C22201DFCF781FE206840F449
:103540008070206010BD70B504460D46E0682861AB
:10355000206968616069A861A069E861E06B286220
:1035600094ED120B85ED0C0B94ED140B85ED140B03
:1035700094F828004E2818D094ED080B51EC100B4D
:1035800081F00041C5E9100194F8380045280FD0BA
:1035900094ED0C0B51EC100B81F00041C5E91201C8
:1035A000286840F00100286070BDD4E90801E9E70F
:1035B000D4E90C01F2E72DE9F041002642684A62A5
:1035C00090ED280B81ED0A0B90ED2A0B81ED0C0B91
:1035D00090ED2C0B81ED0E0B00234FF0010C00221F
:1035E00000EB83070DE0BC6854B102EB820501EBF0
:1035F0008505D5F88480444502D1C5F888C0761C7D
:10360000521CD1F880409442EDDC5B1C252BE6DB9C
:10361000CE67086840F002000860BDE8F08170B530
:10362000D0E900329A4232DC2523B3EB820F2EDB45
:10363000012A01DA012242608268C1F880204268D2
:10364000521E92008368141DA34201DA9D1A00E005
:103650000425002215E043685B1E02EB830302EBA6
:10366000820400EB840403EB830301EB8303E6682D
:1036700043F8846F66699E60A669DE60E4691C6138
:10368000521CAA42E7DB086840F00400086070BDE5
:1036900070B505460C46287F412802D0562809D02F
:1036A0000CE0216A022001B92062616A012905D17A
:1036B000606203E000202062012060621C22294633
:1036C000201DFCF7BCFD95F828004E2828D095ED6C
:1036D000080B51EC100B81F00041C4E9100195F882
:1036E000380045281FD095ED0C0B51EC100B81F0E4
:1036F0000041C4E9120195ED100B9FED0C1B51EC3C
:10370000100B53EC112BFCF7BBFEC4E9180195ED2F
:10371000120B84ED1A0B206840F00800206070BD89
:10372000D5E90801D9E7D5E90C01E2E76F1283C0BA
:10373000CAA1FD3F8068C1F854060E4AC1F8582658
:10374000002809D001280BD002280DD007280FD15E
:10375000114609A000F045B906490CA000F041B996
:1037600004490EA000F03DB9024911A000F039B99A
:1037700070470000F80200204750545854207573D9
:10378000657220696E666F3A202573004750545861
:1037900054206572726F723A202573004750545856
:1037A00054207761726E696E673A202573000000BD
:1037B0004750545854206E6F746963653A202573DE
:1037C0000000000090ED000B81ED1A0B90ED040B52
:1037D00081ED1C0B90ED0C0B81ED180B086840F08F
:1037E000100008607047000010B5C2B00C469FED95
:1037F000090BFF2C0BDC0146224601A8FCF71FFD3C
:1038000001A90020085541A901A8FEF77DFF42B09B
:1038100010BD0000000000000000000030B5C1B085
:1038200003460C4615460020FF2C0CDC22461946A8
:103830006846FCF704FD00200DF804002A4640A964
:103840006846FCF73EFD41B030BD00002DE9F04177
:103850002DED028BADF5D26D002401F0BFF92849A2
:10386000016001F0BBF92749416001F0B7F9264931
:1038700081600CA801F0A9FA07A800F05FFF234FB0
:103880003878234D4FF480724FF00108002648B17C
:103890000CAB204907A800F07BF93E700124C5F865
:1038A00000800BE01C4F387840B10CAB1B4907A8D7
:1038B00000F06EF93E700124C5F80080002C18D08D
:1038C0000123082269460DA8FEF7EAF89DED1C0BBE
:1038D00000F0A6F8B0EE408AF0EE608A9DED1E0B77
:1038E00000F09EF80E4880ED008B0E4880ED008BB6
:1038F0002E600DF5D26DBDEC028BBDE8F0810000AD
:10390000E94D0008A9300008213100084D000020D1
:103910002C000020F80000204C000020F8010020BE
:1039200038000020300000200FB410B5ADF5816DD7
:1039300001F054F94468002C10D00DF2144340F209
:10394000FF3101A8DDF81024FEF7C6FE0146002075
:10395000CDF80404002901DD01A8A0470DF5816D13
:1039600010BC5DF814FB2DE9F04704468846174665
:1039700004EB0806002000254FF0FF39C7F800903F
:103980000BE02378242B02D108B1002407E02A2B76
:103990000DD000B15D40641C401CB442F1D33968C5
:1039A000002902DA002C00D00020BDE8F087611D5C
:1039B000B142F4D8E1780D29F1D121790A29EED16B
:1039C00010220221601CFFF729FF01463860301BDE
:1039D000A8EB0000401DA942E1D0C7F800900024E8
:1039E000DDE70FB410B5ADF5816D01F0F7F884682F
:1039F000002C10D00DF2144340F2FF3101A8DDF885
:103A00001024FEF769FE01460020CDF804040029C9
:103A100001DD01A8A0470DF5816D10BC5DF814FB18
:103A200010B52DED068BB0EE409AF0EE609A51EC99
:103A3000190B9FED12AB53EC1A2BFCF793FDFCF71F
:103A400011FEFCF7FEFD41EC180B53EC1A2B51EC68
:103A5000180BFCF715FD53EC192BFCF70EFD9FED31
:103A6000091B53EC112BFCF77DFD53EC182BFCF7D5
:103A700060FC41EC100BBDEC068B10BD000000009B
:103A8000000059400000000000004E4070B505469F
:103A9000052901DA002070BD3C4C0522284621682A
:103AA000FCF702FC00284FD0052228466168FCF78D
:103AB000FBFB00284AD005222846A168FCF7F4FB4E
:103AC000E8B305222846E168FCF7EEFBC0B3052207
:103AD00028462169FCF7E8FB98B30522284661696E
:103AE000FCF7E2FB70B305222846A169FCF7DCFB7A
:103AF00048B305222846E169FCF7D6FB80B30522CE
:103B00002846216AFCF7D0FB58B305222846616A93
:103B1000FCF7CAFB68B305222846A16AFCF7C4FB80
:103B200050B305222846E16AFCF7BEFB38B30522F4
:103B30002846216BFCF7B8FB20B3002070BD07E0DE
:103B400008E009E00AE00DE00120F7E70220F5E7D0
:103B50000420F3E70820F1E71020EFE72020EDE74D
:103B600002E003E04020E9E78020E7E74FF48070BF
:103B7000E4E74FF40070E1E74FF48060DEE74FF4D4
:103B80000060DBE74FF48050D8E7000078000020A9
:103B9000F8B506461D46002400200090304600F08F
:103BA00007FE69E0641C402855D00EDC08282FD0A1
:103BB00006DC01281DD0022820D0042859D122E09B
:103BC00010282AD0202854D14FE0B0F5806F33D090
:103BD00008DC802844D0B0F5807F32D0B0F5007F7B
:103BE00047D133E0B0F5006F21D0B0F5805F40D110
:103BF00018E029460098FFF7A6FC3AE0294600980D
:103C0000FFF7D9FC35E029460098FFF708FD30E0C2
:103C100029460098FFF73CFD2BE029460098FFF766
:103C2000D1FD26E029460098FFF78FFB21E02946C9
:103C30000098FFF709FC1CE029460098FFF75EFC9E
:103C400017E029460098FFF772FC12E02946009819
:103C5000FFF7B5FB0DE029460098FFF73CFB08E0B5
:103C600029460098FFF702FB03E029460098FFF77A
:103C700061FD0098FFF72CFA6946304600F086FD9A
:103C800000288FD12046F8BD70B590B005460E468D
:103C90001446B8212046FCF7EBFA3146284601F0DD
:103CA00086F804F1B00004F1A801CDE90E108038C7
:103CB000011F04F1A00204F13403CDE90C320A1F04
:103CC000CDE90A101038011F131FCDE908320A1F71
:103CD000CDE906101038131F011FCDE904320A1F69
:103CE000231DCDE90032CDE90210234607A231465B
:103CF000284600F077FF112805D013A0FFF714FE27
:103D0000002010B070BD0120FBE7000024424447B2
:103D100053412C25432C25642C25642C25642C250B
:103D2000642C25642C25642C25642C25642C2564A6
:103D30002C25642C25642C25642C25642C25662CCC
:103D400025662C25662A00004244475341207061B5
:103D5000727365206572726F7221000070B592B047
:103D600005460E4614465C212046FCF781FA314692
:103D7000284601F01CF804F15800011F0A1FCDE984
:103D80001010143804F14803011FCDE90E320A1F48
:103D9000CDE90C101438143B011FCDE90A320A1F7B
:103DA000CDE908101438143B011FCDE906320A1F73
:103DB000CDE90410143B1438211DCDE90232CDE9C0
:103DC000001023460E4A3146284600F00BFF61687A
:103DD000491E8900A2680B1D9A4201DA511A00E0BF
:103DE0000421032202EB8101884201DB132805DD57
:103DF00004A0FFF799FD002012B070BD0120FBE781
:103E00000050000842444753562070617273652089
:103E10006572726F7221000070B5CEB005460E4615
:103E2000144680212046FCF723FA3146284600F04C
:103E3000BEFF04F1680204F16003CDE9093204F128
:103E4000780004F17001CDE90B10203A203BCDE958
:103E5000053220382039CDE90710183A183BCDE952
:103E600001321C38011FCDE903101C3800900EAB45
:103E70000EA23146284600F0B5FE0E2805D018A047
:103E8000FFF752FD00204EB070BD0EA8FCF7FBF905
:103E9000014622460EA8FEF715FD20B115A0FFF73A
:103EA00043FD0020EFE70120EDE7000024474E47E7
:103EB00047412C25732C25662C25432C25662C2563
:103EC000432C25642C25642C25662C25662C254343
:103ED0002C25662C25432C25662C25642A00000001
:103EE000474E474741207061727365206572726F5B
:103EF00072210000474E4747412074696D6520706C
:103F000061727365206572726F72210070B5C6B000
:103F100005460E46144640212046FCF7A9F93146D5
:103F2000284600F044FF04F13900411ECDE9041099
:103F300029383039CDE9001006AB04F11802CDE97B
:103F4000022323460EA23146284600F04BFE0728E6
:103F500005D013A0FFF7E8FC002046B070BD06A80E
:103F6000FCF791F9014604F11C0206A8FEF7AAFC31
:103F700020B110A0FFF7D8FC0020EEE70120ECE70D
:103F800024474E474C4C2C25662C25432C25662C6B
:103F900025432C25732C25432C25432A00000000A3
:103FA000474E474C4C207061727365206572726F8A
:103FB00072210000474E474C4C2074696D6520709B
:103FC00061727365206572726F72210070B5CEB038
:103FD00005460E46144660212046FCF749F9314655
:103FE000284600F0E4FE04F15002CDE9094204F154
:103FF0005900411ECDE90B10083A04F14003CDE908
:104000000532201D011DCDE90710203A203BCDE9E6
:10401000013234302831CDE903101C3800900EAB4A
:1040200010A23146284600F0DDFD0D2807D00E28ED
:1040300005D019A0FFF778FC00204EB070BD0EA887
:10404000FCF721F9014622460EA8FEF73BFC20B101
:1040500016A0FFF769FC0020EFE7206864302060BD
:104060000120EAE724474E524D432C25732C25436B
:104070002C25662C25432C25662C25432C25662CC7
:1040800025662C2532642532642532642C25662C65
:1040900025432C25432A0000474E524D4320706192
:1040A000727365206572726F72210000474E524D27
:1040B000432074696D65207061727365206572724A
:1040C0006F72210070B588B005460E461446402137
:1040D0002046FCF7CDF83146284600F068FE04F192
:1040E0003900411ECDE9061004F1300204F1280325
:1040F000CDE9043219382039203A203BCDE900328D
:10410000CDE90210234611A23146284600F06AFD8F
:10411000092805D016A0FFF707FC002008B070BDE5
:10412000207A54280AD1207E4D2807D194F82800FF
:104130004E2803D194F838004B2804D011A0FFF783
:10414000F3FB0020EAE70120E8E7000024474E5691
:1041500054472C25662C25432C25662C25432C25DD
:10416000662C25432C25662C25432C25432A00004C
:10417000474E565447207061727365206572726FA6
:1041800072210000474E56544720706172736520BB
:104190006572726F722028666F726D61742065722D
:1041A000726F72292100000070B5C8B005460E4636
:1041B00014461C212046FCF75BF83146284600F0E7
:1041C000F6FD46A947AB201DCDE90231019045AA75
:1041D000001D0492009005AB10A23146284600F065
:1041E00001FD4799A1F26C712160062805D013A04A
:1041F000FFF79AFB002048B070BD05A8FCF743F814
:104200000146224605A8FEF75DFB20B110A0FFF78E
:104210008BFB0020EFE70120EDE7000024474E5A1A
:1042200044412C25732C2532642C2532642C2534F2
:10423000642C2532642C2532642A0000474E5A44EF
:1042400041207061727365206572726F7221000087
:10425000474E5A44412074696D65207061727365E0
:10426000206572726F72210070B5CEB005460E46A1
:10427000144680212046FBF7FBFF3146284600F01C
:1042800096FD04F1680204F16003CDE9093204F1FE
:10429000780004F17001CDE90B10203A203BCDE904
:1042A000053220382039CDE90710183A183BCDE9FE
:1042B00001321C38011FCDE903101C3800900EABF1
:1042C0000EA23146284600F08DFC0E2805D018A01D
:1042D000FFF72AFB00204EB070BD0EA8FBF7D3FFFE
:1042E000014622460EA8FEF7EDFA20B115A0FFF711
:1042F0001BFB0020EFE70120EDE7000024475047BB
:1043000047412C25732C25662C25432C25662C250E
:10431000432C25642C25642C25662C25662C2543EE
:104320002C25662C25432C25662C25642A000000AC
:104330004750474741207061727365206572726F04
:104340007221000047504747412074696D65207015
:1043500061727365206572726F72210070B590B0E2
:1043600005460E461446B8212046FBF781FF31462C
:10437000284600F01CFD04F1B00004F1A801CDE9CD
:104380000E108038011F04F1A00204F13403CDE9BE
:104390000C320A1FCDE90A101038011F131FCDE996
:1043A00008320A1FCDE906101038131F011FCDE98E
:1043B00004320A1F231DCDE90032CDE90210234645
:1043C00007A23146284600F00DFC112805D013A0A5
:1043D000FFF7AAFA002010B070BD0120FBE7000033
:1043E0002447504753412C25432C25642C25642C0D
:1043F00025642C25642C25642C25642C25642C250F
:10440000642C25642C25642C25642C25642C2564BF
:104410002C25662C25662C25662A0000475047531C
:1044200041207061727365206572726F72210000A5
:1044300070B592B005460E4614465C212046FBF747
:1044400017FF3146284600F0B2FC04F15800011F66
:104450000A1FCDE91010143804F14803011FCDE9FB
:104460000E320A1FCDE90C101438143B011FCDE9A0
:104470000A320A1FCDE908101438143B011FCDE998
:1044800006320A1FCDE90410143B1438211DCDE972
:104490000232CDE9001023460E4A3146284600F08C
:1044A000A1FB6168491E8900A2680B1D9A4201DACE
:1044B000511A00E00421032202EB8101884201DB52
:1044C000132805DD04A0FFF72FFA002012B070BDFD
:1044D0000120FBE7445000084750475356207061C5
:1044E000727365206572726F7221000070B5CEB074
:1044F00005460E46144660212046FBF7B9FE3146BC
:10450000284600F054FC04F15002CDE9094204F1C0
:104510005900411ECDE90B10083A04F14003CDE9E2
:104520000532201D011DCDE90710203A203BCDE9C1
:10453000013234302831CDE903101C3800900EAB25
:1045400010A23146284600F04DFB0D2807D00E285A
:1045500005D019A0FFF7E8F900204EB070BD0EA8F5
:10456000FBF791FE014622460EA8FEF7ABF920B1FB
:1045700016A0FFF7D9F90020EFE72068643020602B
:104580000120EAE7244750524D432C25732C254344
:104590002C25662C25432C25662C25432C25662CA2
:1045A00025662C2532642532642532642C25662C40
:1045B00025432C25432A00004750524D432070616B
:1045C000727365206572726F722100004750524D00
:1045D000432074696D652070617273652065727225
:1045E0006F722100FEB505460E4614460022226079
:1045F0006260A2603146284600F0D9FB0A4904F106
:104600000802CDE90121201D0090234607A2314672
:10461000284600F0E7FA042804D00AA0FFF784F93E
:104620000020FEBD0120FEBDF802002024475054AA
:1046300058542C2532642C2532642C2532642C25C8
:10464000732A0000475054585420706172736520DB
:104650006572726F7221000070B588B005460E4613
:10466000144640212046FBF703FE3146284600F061
:104670009EFB04F1280204F12003CDE9033204F18A
:10468000380004F13001CDE905102039203ACDE998
:10469000002120380290234610A23146284600F01F
:1046A000A1FA082805D015A0FFF73EF9002008B0B0
:1046B00070BD207A54280AD1207E4D2807D194F865
:1046C00028004E2803D194F838004B2804D010A0BD
:1046D000FFF72AF90020EAE70120E8E724475056CF
:1046E00054472C25662C25432C25662C25432C2548
:1046F000662C25432C25662C25432A00475056540A
:1047000047207061727365206572726F72210000BC
:104710004750565447207061727365206572726FFE
:10472000722028666F726D6174206572726F7229D3
:1047300021000000002101610120704770B505468D
:10474000002600F04BFAC468FF2C01DC4FF48074A3
:1047500014212846FBF78CFD2046FEF751FDA8608A
:1047600018B1EC600126304670BD02A0FFF7DCF8FE
:10477000F9E70000496E73756666696369656E7472
:10478000206D656D6F7279210000000010B5024642
:1047900000241068002809D043680B600468816811
:1047A000116009B900215160FEF792FC204610BD4E
:1047B0002DE9F0410746884614460026FD68A542CB
:1047C00000DB25462A464146384600F007F80644F5
:1047D000641B002CF2D13046BDE8F0812DE9F84F82
:1047E00005460B46144600262869E968204488429D
:1047F00002DB2846FFF79EFF2969A8682246084485
:104800001946FBF71CFD2869204428614FF4805AA3
:10481000002728696A46811BA8683044FFF7A3F87F
:1048200080465FEA080023D0009800287EDB2869D4
:10483000AA68811B701C491E1044FFF727F98346A4
:104840000C20FEF7DDFC040071D06760BBF1400F67
:104850006ED01FDCBBF1080F6BD014DCBBF1010F75
:1048600052D0BBF1020F71D0BBF1040F6DD18CE0BF
:1048700036B12869821B2A61A8688119FBF7DFFC21
:104880003046BDE8F88FBBF1100F7AD0BBF1200F96
:10489000ECD163E14FF48069CB4573D01CDCBBF1F4
:1048A000800F70D04FF48079CB456DD04FF40079F4
:1048B000CB45DBD14020FEF7A3FC60600028C3D0CD
:1048C000C4F80090A96802468B1941461846FFF7C4
:1048D0001DFB002874D05EE14FF40069CB4570D019
:1048E000D345C3D18020FEF78BFC60600028ABD09D
:1048F000C4F800A0A96802468B1941461846FFF784
:104900008BFA002879D046E18020FEF779FC6060C0
:10491000002899D001212160A96802468B194146DF
:104920001846FFF7A1FC0028D5D103E03CE1FBE0ED
:10493000E1E047E0606810B1FEF7CAFB676020461F
:10494000FEF7C6FB002426E100E020E1B820FEF7D8
:1049500057FC60600028B2D002212160A96802469D
:104960008B1941461846FFF7F9FC0028B3D160685F
:1049700010B1FEF7ADFB67602046FEF7A9FB0024EF
:1049800009E13BE07AE0D0E092E05C20FEF738FC01
:104990006060002893D004212160A96802468B1929
:1049A00041461846FFF744FD002894D1606810B1D5
:1049B000FEF78EFB67602046FEF78AFB0024EAE0E4
:1049C0008FE040E06020FEF71BFC606000288ED086
:1049D00008212160A96802468B1941461846FFF755
:1049E00085FD00288FD1606810B1FEF771FB67600C
:1049F0002046FEF76DFB0024CDE01AE04020FEF7D4
:104A0000FFFB6060002884D010212160A968024665
:104A10008B1941461846FFF71FFE002808D1606831
:104A200010B1FEF755FB67602046FEF751FB0024EE
:104A3000B1E0606810B1FEF74BFB67602046FEF7FF
:104A400047FB0024A7E06020FEF7DAFB6060002847
:104A50006AD0C4F80090A96802468B1941461846EE
:104A6000FFF7B4FA002808D1606810B1FEF730FBF8
:104A700067602046FEF72CFB00248CE04020FEF708
:104A8000BFFB606000284FD0C4F80090A9680246C0
:104A90008B1941461846FFF715FB08BB606810B13B
:104AA000FEF716FB67602046FEF712FB002472E05B
:104AB0001C20FEF7A5FB6060B0B3C4F80090A968A5
:104AC00002468B1941461846FFF76EFB40B96068F5
:104AD00010B1FEF7FDFA67602046FEF7F9FA0024F0
:104AE00059E0606810B1FEF7F3FA67602046FEF700
:104AF000EFFA00244FE05C20FEF782FB606098B183
:104B000040212160A96802468B1941461846FFF7EB
:104B100025F910BB606810B1FEF7DAFA676020462D
:104B2000FEF7D6FA002436E040E0B820FEF768FB36
:104B30006060D8B380212160A96802468B19414684
:104B40001846FFF7A1F840B9606810B1FEF7C0FA47
:104B500067602046FEF7BCFA00241CE00C20FEF73C
:104B60004FFB606010B320212160A96802468B19B9
:104B700041461846FFF736FD68B9606810B1FEF788
:104B8000A7FA67602046FEF7A3FA002403E0204658
:104B9000FEF79EFA00243CB1686800B184606C6046
:104BA000286800B92C60A760464432E6FFE714B1DC
:104BB0002046FEF78DFA03A0FEF7B6FE4FF0FF3059
:104BC0005FE60000496E73756666696369656E74B9
:104BD000206D656D6F7279210000000000487047FC
:104BE000680000200FB42DE9F84F044667184FF015
:104BF00001080025A946AB460DA80090BEE0B8F11B
:104C0000010F09D0B8F1020F11D0B8F1030F12D083
:104C1000B8F1040F07D11EE0BAF1250F04D014F843
:104C2000010B504528D1A6E04FF00208A3E0002573
:104C3000B1464FF00308FBF7F5FA006810F80A00D8
:104C4000202877D04E4506D9A6EB09010A2248460E
:104C5000FEF7E4FD0546A24655B90C980178632994
:104C600001D0432904D121784078814200D0012528
:104C70001DB12C44BC420AD989E00C98417829B175
:104C80003A1B2046FBF706FB040000D13C46BC4221
:104C90007DD84FF001080BF1010B0026A4EB0A05AB
:104CA0000C980078632812D008DC43280FD04528E0
:104CB00023D0472821D053282AD111E065281CD0C1
:104CC00066281AD0672818D0732821D108E00098E8
:104CD00040C80090E5B1DEB19AF80000307017E0EE
:104CE000009840C800909DB196B12A465146304682
:104CF000FBF7A5FA002070550AE0009840C8009024
:104D000035B12EB129465046FEF76EFD86ED000BFB
:104D100086B9009840C8009066B15DB10C980078E3
:104D20006F2822D007DC582818D0642808D06928BA
:104D30002DD105E01FE0752809D0782827D10DE096
:104D40000A2229465046FEF769FD306013E00A2228
:104D500029465046FEF762FD30600CE010222946DD
:104D60005046FEF75BFD306005E0082229465046BC
:104D7000FEF754FD30600C98401C0C900C9E96F889
:104D800000A0BAF1000F02D0BC42FFF438AF584681
:104D9000BDE8F80F5DF814FB72210160002141604D
:104DA00001228260C160016141618161704710B57B
:104DB0000346FFF713FF0268002A05D0002903D03D
:104DC000BDE810401846104710BD10B504464FF41A
:104DD000CC612046FBF74CFA201DFFF7DDFF0020D9
:104DE00020620120606210BD70470040404040409A
:104DF00040404040414141414140404040404040AE
:104E000040404040404040404040400502020202D5
:104E100002020202020202020202022020202020DC
:104E20002020202020020202020202029090909094
:104E30009090101010101010101010101010101072
:104E400010101010101002020202020288888888D6
:104E500088880808080808080808080808080808D2
:104E6000080808080808020202024000EB4D00088A
:104E70000953504920636F6D6D756E696361746984
:104E80006F6E206572726F7221506C656173652060
:104E900072657065617420746865207072657669EA
:104EA0006F757320636F6D6D756E69636174696F83
:104EB0006E2073657175656E63652E0D00000000D0
:104EC00009436C6F636B206572726F7221506C6561
:104ED0006173652061646A75737420746865206607
:104EE00072657175656E6379206F662074686520E0
:104EF000636C6F636B207369676E616C206F6E20EB
:104F00007468652053594E432070696E20746F2079
:104F10006F7065726174652077697468696E20745A
:104F2000686520617070726F70726961746520725B
:104F3000616E67652E0D0000095374616E646279BD
:104F4000206D6F6465215768656E2056444420A12A
:104F5000DD20322E38205620666F72203235302008
:104F60006D732C20746865204144495331363436C2
:104F700035207265696E697469616C697A65732040
:104F8000616E64207374617274732070726F6475E3
:104F900063696E67206461746120616761696E2E68
:104FA0000D00000009466C617368206D656D6F72BD
:104FB0007920757064617465206661696C757265CD
:104FC00021506C6561736520656E73757265207420
:104FD0006861742056444420A1DD203320562061AE
:104FE0006E642072657065617420746865207570E8
:104FF0006461746520617474656D70742E0D0000B9
:105000002442444753562C25642C25642C25642CBB
:1050100025642C25642C25642C25642C25642C25E2
:10502000642C25642C25642C25642C25642C256493
:105030002C25642C25642C25642C25642C25642ABD
:10504000000000002447504753562C25642C25644B
:105050002C25642C25642C25642C25642C25642C9B
:1050600025642C25642C25642C25642C25642C2592
:10507000642C25642C25642C25642C25642C256443
:105080002C25642A00000000474E5A4441000000CD
:10509000474E474741000000475047474100000046
:1050A000424447534100000047504753410000002D
:1050B000474E524D430000004750524D4300000000
:1050C000474E5654470000004750565447000000D2
:1050D000474E474C4C0000004750545854000000C5
:1050E00042444753560000004750475356000000C3
:1050F0001051000800000020BC000000302700080C
:10510000CC510008BC0000203C53000040270008A0
:10511000007A030A000000000000000001020304FE
:10512000060708090000000001020304010203044D
:105130000607080900000000000000000000000051
:10514000000000000000000000000000000000005F
:1051500000A00000000000000000000000000000AF
:10516000000100000000000000000000000000003E
:10517000000000000000000000000000000000002F
:10518000000000000004000098500008A85000082B
:10519000E8500008B8500008C8500008D85000086F
:1051A000E0500008A050000888500008D0500008C7
:1051B000C0500008B05000089050000800000000E7
:0C51C000000000000000000000000000E3
:040000050800018965
:00000001FF
